:020000040800F2
:100000005804002001010008CB0E0008E70C00088E
:10001000C90E00086D0100087B13000800000000F5
:100020000000000000000000000000000F110008A8
:100030006F010008000000000D11000811110008F8
:100040001B0100081B0100081B0100081B01000820
:100050001B0100081B0100081B0100081B01000810
:100060001B0100081B0100081B0100081B01000800
:100070001B0100081B0100081B0100081B010008F0
:100080001B0100081B0100081B0100081B010008E0
:100090001B0100081B0100081B0100081B010008D0
:1000A0001B0100081B0100081B0100081B010008C0
:1000B0001B0100081B0100081B0100081B010008B0
:1000C0001B0100081B0100081B0100081B010008A0
:1000D0001B0100081B0100081B0100081B01000890
:1000E0001B0100081B0100081B010008DFF80CD0F1
:1000F00000F02AF800480047731400085804002054
:100100000648804706480047FEE7FEE7FEE7FEE7B1
:10011000FEE7FEE7FEE7FEE7FEE7FEE75F11000809
:10012000ED000008D2B201E000F8012B491EFBD21D
:1001300070470022F6E710B513460A4604461946F2
:10014000FFF7F0FF204610BD064C074D06E0E068C3
:1001500040F0010394E8070098471034AC42F6D30E
:10016000FFF7C8FFC01C0008E01C0008FEE770474E
:10017000704700002DE9F84FDFF8B891002409F12D
:10018000040A0AF1040B23460F270BF1040EC9E001
:100190000125A5402A40AA427DD1674ED1F804C06E
:1001A000ACEB0608B44532D014DCBCF1030F3AD0F6
:1001B00009DCBCF1000F2AD0BCF1010F1CD0BCF14E
:1001C000020F31D11DE0BCF1110F17D0BCF1120F9D
:1001D0002AD119E0B8F5881F19D006DCB8F5803FA0
:1001E00015D0B8F5801F1FD111E0B8F5001F0ED053
:1001F000B8F5041F18D10AE0CB6815E0CB681B1DC9
:1002000012E0CB6808330FE0CB680C330CE08B684E
:100210002BB1012B4FF0080303D0456104E0042308
:1002200002E0056100E00023FF2A01D8064601E054
:1002300000F104064FEA840501D9A5F12005D6F89E
:10024000008007FA05FC28EA0C0803FA05F548EADD
:100250000508C6F800804D68ED0062D5374DAE69DF
:1002600046F00106AE61AD6924F0030605F0010514
:100270000095334D06EB050CDCF80850A607360F49
:1002800007FA06F825EA0805DFF8B880404503D1EB
:100290004FF0000817E044E0DFF8AC80404502D1A1
:1002A0004FF001080FE0DFF8A480404502D14FF085
:1002B000020808E0DFF89880404502D14FF00308BB
:1002C00001E04FF0040808FA06F848EA0508CCF8FF
:1002D00008804D68D9F80060ED034D4601D51643FE
:1002E00000E096432E604D68DAF80060AD03554695
:1002F00001D5164300E096432E604D68DBF80060A0
:10030000ED025D4601D5164300E096432E604D6830
:10031000DEF80060AD02754601D5164300E0964355
:100320002E60641C0D682A46E5407FF431AFBDE8BD
:10033000F88F00000004014000001110001002407E
:100340000000014000080140000C01400010014085
:10035000001401400AB1016170470904FBE7000085
:100360000148806870470000000000200248816852
:10037000027811448160704700000020074810B5E2
:10038000016841F010010160032000F067F80020CF
:1003900000F006F800F024F8002010BD0020024014
:1003A00070B50D4D04464FF47A712878B1FBF0F02A
:1003B0000A490968B1FBF0F000F0BEFA48B9102C08
:1003C00007D200222146501E00F028F800206C6061
:1003D00070BD012070BD0000000000200C00002056
:1003E0000C4808B5816941F001018161816901F022
:1003F00001010091C16941F08051C161C06900F003
:10040000805000900448416821F0E06141F00071A3
:10041000416008BD0010024000000140F0B40E4BE6
:100420001B680C46C3F30223C3F10705042D00D952
:100430000425191D072901D2002300E0DB1E012637
:1004400006FA05F1491E214099409E40761E16404D
:100450003143F0BC00F0EEBF0CED00E0064900F0C7
:10046000070208684FF6FF03184040EA0220034ADB
:1004700010430860704700000CED00E00000FA0532
:100480002DE9F0470F46050061D0434E306800F07B
:100490000700B84209D2306820F0070038433060C6
:1004A000306800F00700B84251D128683B4C810702
:1004B00012D5400703D5606840F4E060606028789A
:1004C000000703D5606840F4605060606068A96808
:1004D00020F0F000084360602878C00728D06868E2
:1004E000012810D02168022810D0890700292EDAAF
:1004F000616821F0030101436160FFF731FF80462D
:1005000041F288390DE021688903EFE78901EDE7C1
:10051000FFF726FFA0EB0801494502D90320BDE8FB
:10052000F0876068696800F00C00B0EB810FEFD1D4
:10053000306800F00700B8420BD9306820F007009F
:1005400038433060306800F00700B84201D0012025
:10055000E5E72878400705D56068E96820F4E060A1
:10056000084360602878000706D56068296920F490
:10057000605040EAC100606000F018F86168084A05
:10058000C1F30311515CC840064908600648006881
:10059000FFF706FF0020C2E70020024000100240E3
:1005A000B01C00080C0000200400002012A185B03F
:1005B0000FC98DE80F0014A0144A00680490516818
:1005C000134801F00C03042B10D0082B0ED1C1F3FB
:1005D0008343C9031DF803000AD5516804AAC1F377
:1005E0004041515C0A4A5043B0FBF1F005B07047FE
:1005F00008494843FAE70000020304050607080912
:100600000A0B0C0D0E0F101001020000001002402A
:1006100000127A0000093D002DE9F84F040070D067
:100620002078C04DC00749D06868C0F38100012818
:1006300007D06868C0F38100022809D16868C00348
:1006400006D52868800339D560680028E7D035E0F2
:100650006068B0F5803F0BD010B1B0F5A02F11D07D
:10066000286820F480302860286820F4802002E088
:10067000286840F480302860606890B1FFF770FE11
:1006800006460AE0286840F480202860F0E700BFB2
:10069000FFF766FE801B642873D828688003F7D5AF
:1006A0000CE0FFF75DFE064605E000BFFFF758FED1
:1006B000801B6428F0D828688003F7D420789A4EED
:1006C00080074FF001094FF0000839D5686810F035
:1006D0000C0F07D06868C0F38100022809D1686850
:1006E000C00306D42868800714D52069012808D1E2
:1006F00010E02069B0B1C6F80090FFF731FE074660
:1007000005E00AE1FFF72CFEC01B0228C4D82868C8
:100710008007F7D52868616920F0F80040EAC10039
:1007200028600DE0C6F80080FFF71AFE074604E0D7
:10073000FFF716FEC01B022823D828688007F7D4CD
:10074000207800072CD57948A169D9B1C0F800906C
:10075000FFF706FE074604E0FFF702FEC01B022873
:100760000FD8686A8007F7D571484FF4FA510068CE
:10077000B0FBF1F0009000BF0098411E0091FAD24A
:100780000EE080E0C0F80080FFF7EAFD074604E0D5
:10079000FFF7E6FDC01B022875D8686A8007F7D40A
:1007A0002078400760D5E8690027C00008D4E869D0
:1007B00040F08050E861E869012700F08050009027
:1007C0005C480168C90513D40168834641F480710F
:1007D0000160FFF7C5FD824606E000BFFFF7C0FDE0
:1007E000A0EB0A0064284ED8DBF80000C005F5D560
:1007F000E06801280AD008B1052813D0286A20F043
:1008000001002862286A20F0040002E0286A40F013
:1008100001002862E06841F2883B98B1FFF7A0FD33
:1008200082460BE0286A40F004002862EEE700BF31
:10083000FFF796FDA0EB0A0159455AD8286A8007B0
:10084000F6D50CE0FFF78CFD824605E0FFF788FD4A
:10085000A0EB0A0159454CD8286A8007F6D41FB18D
:10086000E86920F08050E861E06988B36968C1F305
:100870008101022944D00228C6F8608004D0FFF725
:100880006FFD044638E034E0FFF76AFD074604E0F8
:10089000FFF766FDC01B02282BD828688001F7D41B
:1008A000206AB0F5803F05D16868A16820F4003067
:1008B00008436860D4E908010843696821F47411A9
:1008C00008436860C6F86090FFF74AFD044606E0FA
:1008D00025E000BFFFF744FD001B022809D8286867
:1008E0008001F7D51BE000BFFFF73AFD001B02288F
:1008F00002D90320BDE8F88F28688001F4D40EE007
:100900000128F7D06868226A00F48031914204D14E
:10091000616A00F47010884201D00120EAE70020EB
:10092000E8E700000010024000004242800442421A
:100930000C0000200070004010B5401EB0F1807F18
:1009400001D3012010BD4FF0E02460610F2160173A
:1009500000F070FD0020A06107202061002010BD84
:1009600010B590F83C20012A22D0012280F83C20CA
:10097000CA688C6822F4407222434C6822F4806278
:1009800022430C6822F4006222430C6922F4805254
:1009900022434C6922F400522243C969002322F405
:1009A00080420A4301684A6480F83C30002010BD50
:1009B000022010BD70B590F83C20012A26D00124F9
:1009C00080F83C40022280F83D2003685A689D6808
:1009D00022F070060A6832435A600D4B02689A4250
:1009E00008D0B2F1804F05D00A4B9A4202D00A4B90
:1009F0009A4204D1496825F080031943916080F838
:100A00003D40002180F83C10084670BD022070BDBA
:100A1000002C0140000400400008004010B5040014
:100A200003D094F83D0010B107E0012010BD002074
:100A300084F83C00204600F01FF8022084F83D00B6
:100A4000211D206800F08CFB012084F8460084F80A
:100A50003E0084F83F0084F8400084F8410084F8A8
:100A6000420084F8430084F8440084F8450084F888
:100A70003D00002010BD000008B50068064988420E
:100A800008D10648816941F400618161806900F400
:100A90000060009008BD0000002C014000100240E2
:100AA00070B5044690F83C00012817D0012584F861
:100AB0003C50022084F83D002068826822F07702D2
:100AC00022F47F4282600868502830D00DDC202854
:100AD0004DD005DC98B310283BD148E0022070BD12
:100AE000302844D0402834D139E0602828D07028FC
:100AF00006D0B0F5805F2CD0B0F5005F29D10AE0B8
:100B0000CB68D1E90121206800F060FB2068816892
:100B100041F0770109E0CB68D1E90121206800F0BC
:100B200055FB2068816841F48041816011E0CA680A
:100B30004968206800F0FEFB5021206807E016E0BD
:100B4000CA684968206800F006FC6021206800F04F
:100B500047FB84F83D50002084F83C0070BDCA6813
:100B60004968206800F0E6FB40212068EFE7226832
:100B700001461046EBE7000000B585B0002100916A
:100B800001910291039100680B49884212D10B48F0
:100B9000816941F0040181618069694600F00400C7
:100BA00004904FF4106000900220019003900448DC
:100BB000FFF7E0FA05B000BD002C01400010024034
:100BC0000008014070B5044690F83C000D4601282D
:100BD0000AD0012084F83C0042B1042A18D0082A27
:100BE0002AD00C2A4DD139E0022070BD206800F0D7
:100BF000FFFA2068816941F00801816120688169FC
:100C000021F004018161206881692A69114311E0A2
:100C1000206800F015FB2068816941F40061816162
:100C20002068816921F480618161206881692A6975
:100C300041EA0221816124E0206800F02DFB206858
:100C4000C16941F00801C1612068C16921F0040156
:100C5000C1612068C1692A69114311E0206800F070
:100C600047FB2068C16941F40061C1612068C16926
:100C700021F48061C1612068C1692A6941EA0221C9
:100C8000C161002084F83C0070BD10B5040003D0A1
:100C900094F83D0010B107E0012010BD002084F859
:100CA0003C00204600F01EF8022084F83D00211D83
:100CB000206800F055FA012084F8460084F83E00D0
:100CC00084F83F0084F8400084F8410084F8420032
:100CD00084F8430084F8440084F8450084F83D001B
:100CE000002010BD7047FEE770B501220B4D1402C5
:100CF00021462846FFF72EFB0122560231462846A0
:100D0000FFF728FB002231462846FFF723FB214648
:100D10002846BDE870400022FFF71CBB000C0140D4
:100D200070B5094C012211022046FFF713FB65152F
:100D3000002229462046FFF70DFB29462046BDE844
:100D400070400122FFF706BB000C014070B5012284
:100D5000064D140221462846FFF7FCFA2146284694
:100D6000BDE870400022FFF7F5BA0000000C01401A
:100D700070B586B000241C4800940194029403943A
:100D8000816941F010018161816901F010010491D4
:100D9000816941F020018161816901F020010491A4
:100DA000816941F008018161816901F008010491C4
:100DB000816941F00401816180690C4E00F00400FA
:100DC0004FF473450490002229463046FFF7C2FADB
:100DD00001200095CDE901040220039069463046C8
:100DE000FFF7C8F906B070BD00100240000C0140CA
:100DF00010B596B000240F9410941194129413948B
:100E00001C2168461494FFF794F9202107A8FFF7E6
:100E100090F92C482A4901601F21C0E9011440F2D1
:100E2000E731C0E9031444618461FFF7F7FD08B1BD
:100E3000FFF79EF94FF480500F900FA92148FFF75C
:100E40002FFE08B1FFF794F91E48FFF71EFF08B107
:100E5000FFF78EF9139413A91A481494FFF7AAFD0B
:100E600008B1FFF785F96020CDE9000402940394EE
:100E7000049405940022694612480694FFF7A2FEE6
:100E800008B1FFF775F90C2269460E48FFF79AFE84
:100E900008B1FFF76DF90794089409944FF40050D6
:100EA0000A94CDE90B4007A906480E94FFF758FDB8
:100EB00008B1FFF75DF90348FFF75EFE16B010BDFD
:100EC000002C014010000020FEE7704770B50024A0
:100ED000002104F1B00000F013F90021022000F01D
:100EE0000FF90021102000F00BF90025012100204E
:100EF00000F006F96D1CEDB2802DF7D3641CE4B24E
:100F0000082CE5D370BD00002DE9F0414C4886B0B7
:100F1000816941F008018161806901244FF4807585
:100F2000CDE9005400F0080003260294CDE90360E7
:100F3000DFF8108169464046FFF71CF96702CDE9EA
:100F40000074CDE9024669464046FFF713F90122D5
:100F500029464046FFF7FEF9012239464046FFF791
:100F6000F9F90021AE2000F0CBF80021022000F0BA
:100F7000C7F80021102000F0C3F80021402000F045
:100F8000BFF80021B02000F0BBF80021812000F064
:100F9000B7F80021FF2000F0B3F80021A12000F0F5
:100FA000AFF80021A62000F0ABF80021A82000F047
:100FB000A7F800213F2000F0A3F80021C82000F08E
:100FC0009FF80021D32000F09BF80021084600F094
:100FD00097F80021D52000F093F80021802000F040
:100FE0008FF80021D82000F08BF80021052000F0B8
:100FF00087F80021D92000F083F80021F12000F0CB
:101000007FF80021DA2000F07BF80021122000F0A8
:1010100077F80021DB2000F073F80021302000F089
:101020006FF800218D2000F06BF80021142000F0F3
:1010300067F80021AF2000F063F806B0BDE8F0814A
:1010400000100240000C014010B50A460446002181
:1010500002F1B00000F054F8A41CC4F3031040F0F7
:101060001000002100F04CF804F00F00BDE8104023
:10107000002100F045B800002DE9F041203A00249D
:101080000D468046D6B27F2803D900208D1C8046AD
:10109000EDB2102B294610D0FFF7D6FF164906EB0C
:1010A000460001EB40050121285D00F029F8641C91
:1010B000E4B2062CF7D3BDE8F081FFF7C5FF0F4F70
:1010C00004EB06100121385C00F01AF8641CE4B24D
:1010D000082CF5D36D1CE9B24046FFF7B5FF00249C
:1010E00004EB061038440121007A00F009F8641C72
:1010F000E4B2082CF4D3DEE798140008C016000808
:10110000C0B209B100F07FB900F066B9704770470E
:10111000FFF72CB930B58FB028216846FFF709F8E2
:1011200014210AA8FFF705F801210804CDE90010F1
:101130000024029402250491CDE90750C0000990D3
:101140006846FFF769FA0F200A90CDE90B540D9419
:1011500001210AA80E94FFF793F90FB030BD704734
:10116000F0B50268164B174C174D4FF08047984268
:1011700005D0B84203D0A04201D0A84203D122F04A
:1011800070064A683243984205D0B84203D0A04264
:1011900001D0A84203D122F44074CA6822434C69AA
:1011A00022F08002224302608A68C2620A68826278
:1011B000984201D10969016301214161F0BD00003C
:1011C000002C0140000400400008004010B5846875
:1011D00042EA032224F47F440A432243826010BD82
:1011E000826822F070020A4342F007018160704772
:1011F00030B5026A22F001020262026A4368846921
:1012000024F073050C682C4322F002058A682A43F7
:101210000A4DA8420BD122F00805CA6823F4407396
:101220002A434D6922F004021D438B692B4343601E
:10123000846149684163026230BD0000002C0140B6
:1012400030B5026A22F010020262026A43688469C1
:101250000D6824F4E64444EA05248D6822F0200257
:1012600042EA05120B4DA8420ED1CD6822F0800251
:1012700042EA05124D6923F4406343EA85038D6910
:1012800022F0400243EA8503436084614968816338
:10129000026230BD002C014030B5026A22F4807237
:1012A0000262036A4268C46923F4007324F0730580
:1012B0000C682C438D6843EA05230C4DA8420ED1DF
:1012C000CD6823F4006343EA05234D6922F44052BC
:1012D00042EA05128D6923F4806342EA05124260F6
:1012E000C4614968C163036230BD0000002C014045
:1012F00030B5026A22F480520262046A4268C3690D
:101300000D6823F4E64343EA05238D6824F4005472
:1013100044EA0534064DA84204D14D6922F48042C6
:1013200042EA85124260C36149680164046230BDCB
:10133000002C014010B5036A046A24F00104046221
:10134000846924F0F00444EA021423F00A020A43F8
:101350008461026210BD10B5036A23F010030362BA
:101360008369046A23F4704343EA023224F0A00341
:1013700043EA01118261016210BDFEE72DE9F041EF
:10138000144F04464FF48076002231463846FEF76B
:10139000E1FF00254FF4007804F08000802816D08B
:1013A000002241463846FEF7D5FF6006040E0122B2
:1013B00031463846FEF7CEFF002231463846FEF76A
:1013C000C9FF6D1CEDB2082DE6D3BDE8F081012206
:1013D000E7E70000000C014010B50446FFF784FC6D
:1013E0007820FFF7CBFFFFF7B1FC0020FFF7C6FF27
:1013F000FFF7ACFC2046FFF7C1FFFFF7A7FCBDE8F5
:101400001040FFF78DBC10B50446FFF76DFC782047
:10141000FFF7B4FFFFF79AFC4020FFF7AFFFFFF79D
:1014200095FC2046FFF7AAFFFFF790FCBDE81040AF
:10143000FFF776BC0907090E002804DB00F1E02065
:1014400080F80014704700F00F0000F1E02080F8F1
:10145000141D704702E008C8121F08C1002AFAD103
:1014600070477047002001E001C1121F002AFBD124
:101470007047FEF783FFFFF74DFEFFF779FCFFF79C
:10148000B7FCFFF741FDFFF721FD10236122012189
:101490000620FFF7F1FDF8E7000000000000000063
:1014A000002F000000000700070000147F147F14C5
:1014B00000242A7F2A12006264081323003649554B
:1014C000225000000503000000001C224100000023
:1014D00041221C000014083E08140008083E0808B9
:1014E000000000A060000008080808080000606014
:1014F0000000002010080402003E5149453E000053
:10150000427F4000004261514946002141454B3134
:10151000001814127F10002745454539003C4A4900
:101520004930000171090503003649494936000672
:101530004949291E000036360000000056360000DA
:101540000008142241000014141414140000412255
:10155000140800020151090600324959513E007C2D
:101560001211127C007F49494936003E4141412217
:10157000007F4141221C007F49494941007F090900
:101580000901003E4149497A007F0808087F0000B0
:10159000417F4100002040413F01007F081422416B
:1015A000007F40404040007F020C027F007F040823
:1015B000107F003E4141413E007F09090906003E7F
:1015C0004151215E007F09192946004649494931A8
:1015D0000001017F0101003F4040403F001F2040CB
:1015E000201F003F4038403F006314081463000789
:1015F0000870080700615149454300007F414100E0
:1016000000552A552A55000041417F00000402017F
:10161000020400404040404000000102040000205D
:1016200054545478007F484444380038444444209B
:1016300000384444487F00385454541800087E0948
:1016400001020018A4A4A47C007F08040478000010
:10165000447D4000004080847D00007F10284400CD
:101660000000417F4000007C04180478007C0804DE
:10167000047800384444443800FC2424241800181A
:10168000242418FC007C0804040800485454542006
:1016900000043F444020003C4040207C001C20408F
:1016A000201C003C4030403C004428102844001CD2
:1016B000A0A0A07C004464544C44141414141414CA
:1016C000000000000000000000000000000000001A
:1016D000000000F8000000000000003330000000AF
:1016E00000100C06100C06000000000000000000B6
:1016F00040C07840C0784000043F04043F04040028
:10170000007088FC08300000001820FF211E000037
:10171000F008F000E018000000211C031E211E004C
:1017200000F00888700000001E21232419272110D2
:1017300010160E0000000000000000000000000075
:10174000000000E01804020000000007182040001C
:1017500000020418E000000000402018070000000C
:10176000404080F0804040000202010F0102020070
:10177000000000F0000000000101011F0101010054
:10178000000000000000000080B0700000000000B9
:101790000000000000000000000101010101010142
:1017A00000000000000000000030300000000000D9
:1017B00000000000806018040060180601000000AE
:1017C00000E010080810E000000F102020100F00AB
:1017D000001010F8000000000020203F2020000032
:1017E000007008080888700000302824222130008A
:1017F00000300888884830000018202020110E0092
:101800000000C02010F8000000070424243F24003A
:1018100000F80888880808000019212020110E000F
:1018200000E0108888180000000F112020110E0021
:1018300000380808C83808000000003F0000000019
:101840000070880808887000001C222121221C00DA
:1018500000E010080810E0000000312222110F0003
:10186000000000C0C0000000000000303000000098
:101870000000008000000000000080600000000008
:101880000000804020100800000102040810200021
:10189000404040404040400004040404040404006C
:1018A0000008102040800000002010080402010001
:1018B000007048080808F000000000303601000001
:1018C000C030C828E810E0000718272423140B00B4
:1018D0000000C038E0000000203C2302022738202E
:1018E00008F8888888700000203F202020110E0012
:1018F000C030080808083800071820202010080009
:1019000008F808080810E000203F202020100F00F1
:1019100008F88888E8081000203F202023201800BD
:1019200008F88888E8081000203F20000300000025
:10193000C03008080838000007182020221E0200C6
:1019400008F808000008F808203F210101213F2085
:10195000000808F8080800000020203F20200000B0
:1019600000000808F8080800C08080807F000000A0
:1019700008F888C028180800203F200126382000D9
:1019800008F8080000000000203F20202020300040
:1019900008F8F800F8F80800203F003F003F20005A
:1019A00008F830C00008F808203F200007183F0062
:1019B000E01008080810E0000F10202020100F0091
:1019C00008F808080808F000203F21010101000084
:1019D000E01008080810E0000F18242438504F00C9
:1019E00008F8888888887000203F2000030C302089
:1019F00000708808080838000038202121221C00C7
:101A0000180808F8080818000000203F200000000F
:101A100008F808000008F808001F202020201F00F8
:101A20000878880000C83808000007380E01000058
:101A3000F80800F80008F800033C0700073C030022
:101A4000081868808068180820302C03032C302088
:101A50000838C800C83808000000203F20000000F7
:101A600010080808C838080020382621202018004F
:101A7000000000FE020202000000007F4040400023
:101A8000000C30C000000000000000010638C0005B
:101A900000020202FE000000004040407F00000003
:101AA0000000040202020400000000000000000028
:101AB0000000000000000000808080808080808026
:101AC000000202040000000000000000000000000E
:101AD00000008080808000000019242222223F2004
:101AE00008F8008080000000003F112020110E0047
:101AF0000000008080800000000E112020201100D6
:101B0000000000808088F800000E112020103F2087
:101B10000000808080800000001F2222222213000B
:101B2000008080F0888888180020203F2020000056
:101B30000000808080808000006B9494949360000B
:101B400008F8008080800000203F210000203F2016
:101B500000809898000000000020203F2020000016
:101B6000000000809898000000C08080807F000006
:101B700008F8000080808000203F24022D302000E3
:101B8000000808F8000000000020203F202000008E
:101B90008080808080808000203F20003F20003FA8
:101BA0008080008080800000203F210000203F20B6
:101BB0000000808080800000001F202020201F0067
:101BC000808000808000000080FFA12020110E0096
:101BD0000000008080808000000E112020A0FF8087
:101BE000808080008080800020203F212000010034
:101BF0000000808080808000003324242424190089
:101C0000008080E0808000000000001F2020000095
:101C10008080000000808000001F202020103F20D6
:101C2000808080000080808000010E300806010066
:101C300080800080008080800F300C030C300F000B
:101C400000808000808080000020312E0E31200036
:101C5000808080000080808080818E701806010066
:101C600000808080808080000021302C2221300084
:101C700000000000807C020200000000003F4040A5
:101C800000000000FF00000000000000FF00000056
:101C90000002027C800000000040403F0000000085
:101CA0000006010102020404000000000000000020
:101CB00000000000000000000102030406070809FC
:101CC000E01C000800000020100000005414000870
:101CD000F01C0008100000204804000064140008F4
:101CE0000100000010000000000000000024F400CB
:04000005080000ED02
:00000001FF
